{
	"contracts/Storage.sol": {
		"SimpleStorage": {
			"abi": [
				{
					"inputs": [],
					"name": "deleteData",
					"outputs": [],
					"stateMutability": "nonpayable",
					"type": "function"
				},
				{
					"inputs": [],
					"name": "getData",
					"outputs": [
						{
							"internalType": "uint256",
							"name": "",
							"type": "uint256"
						}
					],
					"stateMutability": "view",
					"type": "function"
				},
				{
					"inputs": [
						{
							"internalType": "uint256",
							"name": "_data",
							"type": "uint256"
						}
					],
					"name": "setData",
					"outputs": [],
					"stateMutability": "nonpayable",
					"type": "function"
				}
			],
			"devdoc": {
				"kind": "dev",
				"methods": {},
				"version": 1
			},
			"evm": {
				"assembly": "    /* \"contracts/Storage.sol\":73:366  contract SimpleStorage{... */\n  mstore(0x40, 0x80)\n  callvalue\n  dup1\n  iszero\n  tag_1\n  jumpi\n  0x00\n  dup1\n  revert\ntag_1:\n  pop\n  dataSize(sub_0)\n  dup1\n  dataOffset(sub_0)\n  0x00\n  codecopy\n  0x00\n  return\nstop\n\nsub_0: assembly {\n        /* \"contracts/Storage.sol\":73:366  contract SimpleStorage{... */\n      mstore(0x40, 0x80)\n      callvalue\n      dup1\n      iszero\n      tag_1\n      jumpi\n      0x00\n      dup1\n      revert\n    tag_1:\n      pop\n      jumpi(tag_2, lt(calldatasize, 0x04))\n      shr(0xe0, calldataload(0x00))\n      dup1\n      0x3bc5de30\n      eq\n      tag_3\n      jumpi\n      dup1\n      0x5b4b73a9\n      eq\n      tag_4\n      jumpi\n      dup1\n      0xe0ba432a\n      eq\n      tag_5\n      jumpi\n    tag_2:\n      0x00\n      dup1\n      revert\n        /* \"contracts/Storage.sol\":199:288  function getData() public view returns  (uint) {... */\n    tag_3:\n      tag_6\n      tag_7\n      jump\t// in\n    tag_6:\n      mload(0x40)\n      tag_8\n      swap2\n      swap1\n      tag_9\n      jump\t// in\n    tag_8:\n      mload(0x40)\n      dup1\n      swap2\n      sub\n      swap1\n      return\n        /* \"contracts/Storage.sol\":126:191  function setData(uint _data) public  {... */\n    tag_4:\n      tag_10\n      0x04\n      dup1\n      calldatasize\n      sub\n      dup2\n      add\n      swap1\n      tag_11\n      swap2\n      swap1\n      tag_12\n      jump\t// in\n    tag_11:\n      tag_13\n      jump\t// in\n    tag_10:\n      stop\n        /* \"contracts/Storage.sol\":299:361  function deleteData() public {... */\n    tag_5:\n      tag_14\n      tag_15\n      jump\t// in\n    tag_14:\n      stop\n        /* \"contracts/Storage.sol\":199:288  function getData() public view returns  (uint) {... */\n    tag_7:\n        /* \"contracts/Storage.sol\":240:244  uint */\n      0x00\n        /* \"contracts/Storage.sol\":265:275  storedData */\n      dup1\n      sload\n        /* \"contracts/Storage.sol\":257:275  return  storedData */\n      swap1\n      pop\n        /* \"contracts/Storage.sol\":199:288  function getData() public view returns  (uint) {... */\n      swap1\n      jump\t// out\n        /* \"contracts/Storage.sol\":126:191  function setData(uint _data) public  {... */\n    tag_13:\n        /* \"contracts/Storage.sol\":183:188  _data */\n      dup1\n        /* \"contracts/Storage.sol\":170:180  storedData */\n      0x00\n        /* \"contracts/Storage.sol\":170:188  storedData = _data */\n      dup2\n      swap1\n      sstore\n      pop\n        /* \"contracts/Storage.sol\":126:191  function setData(uint _data) public  {... */\n      pop\n      jump\t// out\n        /* \"contracts/Storage.sol\":299:361  function deleteData() public {... */\n    tag_15:\n        /* \"contracts/Storage.sol\":352:353  0 */\n      0x00\n        /* \"contracts/Storage.sol\":339:349  storedData */\n      dup1\n        /* \"contracts/Storage.sol\":339:353  storedData = 0 */\n      dup2\n      swap1\n      sstore\n      pop\n        /* \"contracts/Storage.sol\":299:361  function deleteData() public {... */\n      jump\t// out\n        /* \"#utility.yul\":7:84   */\n    tag_19:\n        /* \"#utility.yul\":44:51   */\n      0x00\n        /* \"#utility.yul\":73:78   */\n      dup2\n        /* \"#utility.yul\":62:78   */\n      swap1\n      pop\n        /* \"#utility.yul\":7:84   */\n      swap2\n      swap1\n      pop\n      jump\t// out\n        /* \"#utility.yul\":90:208   */\n    tag_20:\n        /* \"#utility.yul\":177:201   */\n      tag_29\n        /* \"#utility.yul\":195:200   */\n      dup2\n        /* \"#utility.yul\":177:201   */\n      tag_19\n      jump\t// in\n    tag_29:\n        /* \"#utility.yul\":172:175   */\n      dup3\n        /* \"#utility.yul\":165:202   */\n      mstore\n        /* \"#utility.yul\":90:208   */\n      pop\n      pop\n      jump\t// out\n        /* \"#utility.yul\":214:436   */\n    tag_9:\n        /* \"#utility.yul\":307:311   */\n      0x00\n        /* \"#utility.yul\":345:347   */\n      0x20\n        /* \"#utility.yul\":334:343   */\n      dup3\n        /* \"#utility.yul\":330:348   */\n      add\n        /* \"#utility.yul\":322:348   */\n      swap1\n      pop\n        /* \"#utility.yul\":358:429   */\n      tag_31\n        /* \"#utility.yul\":426:427   */\n      0x00\n        /* \"#utility.yul\":415:424   */\n      dup4\n        /* \"#utility.yul\":411:428   */\n      add\n        /* \"#utility.yul\":402:408   */\n      dup5\n        /* \"#utility.yul\":358:429   */\n      tag_20\n      jump\t// in\n    tag_31:\n        /* \"#utility.yul\":214:436   */\n      swap3\n      swap2\n      pop\n      pop\n      jump\t// out\n        /* \"#utility.yul\":523:640   */\n    tag_22:\n        /* \"#utility.yul\":632:633   */\n      0x00\n        /* \"#utility.yul\":629:630   */\n      dup1\n        /* \"#utility.yul\":622:634   */\n      revert\n        /* \"#utility.yul\":769:891   */\n    tag_24:\n        /* \"#utility.yul\":842:866   */\n      tag_36\n        /* \"#utility.yul\":860:865   */\n      dup2\n        /* \"#utility.yul\":842:866   */\n      tag_19\n      jump\t// in\n    tag_36:\n        /* \"#utility.yul\":835:840   */\n      dup2\n        /* \"#utility.yul\":832:867   */\n      eq\n        /* \"#utility.yul\":822:885   */\n      tag_37\n      jumpi\n        /* \"#utility.yul\":881:882   */\n      0x00\n        /* \"#utility.yul\":878:879   */\n      dup1\n        /* \"#utility.yul\":871:883   */\n      revert\n        /* \"#utility.yul\":822:885   */\n    tag_37:\n        /* \"#utility.yul\":769:891   */\n      pop\n      jump\t// out\n        /* \"#utility.yul\":897:1036   */\n    tag_25:\n        /* \"#utility.yul\":943:948   */\n      0x00\n        /* \"#utility.yul\":981:987   */\n      dup2\n        /* \"#utility.yul\":968:988   */\n      calldataload\n        /* \"#utility.yul\":959:988   */\n      swap1\n      pop\n        /* \"#utility.yul\":997:1030   */\n      tag_39\n        /* \"#utility.yul\":1024:1029   */\n      dup2\n        /* \"#utility.yul\":997:1030   */\n      tag_24\n      jump\t// in\n    tag_39:\n        /* \"#utility.yul\":897:1036   */\n      swap3\n      swap2\n      pop\n      pop\n      jump\t// out\n        /* \"#utility.yul\":1042:1371   */\n    tag_12:\n        /* \"#utility.yul\":1101:1107   */\n      0x00\n        /* \"#utility.yul\":1150:1152   */\n      0x20\n        /* \"#utility.yul\":1138:1147   */\n      dup3\n        /* \"#utility.yul\":1129:1136   */\n      dup5\n        /* \"#utility.yul\":1125:1148   */\n      sub\n        /* \"#utility.yul\":1121:1153   */\n      slt\n        /* \"#utility.yul\":1118:1237   */\n      iszero\n      tag_41\n      jumpi\n        /* \"#utility.yul\":1156:1235   */\n      tag_42\n      tag_22\n      jump\t// in\n    tag_42:\n        /* \"#utility.yul\":1118:1237   */\n    tag_41:\n        /* \"#utility.yul\":1276:1277   */\n      0x00\n        /* \"#utility.yul\":1301:1354   */\n      tag_43\n        /* \"#utility.yul\":1346:1353   */\n      dup5\n        /* \"#utility.yul\":1337:1343   */\n      dup3\n        /* \"#utility.yul\":1326:1335   */\n      dup6\n        /* \"#utility.yul\":1322:1344   */\n      add\n        /* \"#utility.yul\":1301:1354   */\n      tag_25\n      jump\t// in\n    tag_43:\n        /* \"#utility.yul\":1291:1354   */\n      swap2\n      pop\n        /* \"#utility.yul\":1247:1364   */\n      pop\n        /* \"#utility.yul\":1042:1371   */\n      swap3\n      swap2\n      pop\n      pop\n      jump\t// out\n\n    auxdata: 0xa26469706673582212207616f95782356d5eef612498045f458648f3f7c19cace5351a3f38734ae1005964736f6c63430008160033\n}\n",
				"bytecode": {
					"linkReferences": {},
					"object": "608060405234801561000f575f80fd5b506101608061001d5f395ff3fe608060405234801561000f575f80fd5b506004361061003f575f3560e01c80633bc5de30146100435780635b4b73a914610061578063e0ba432a1461007d575b5f80fd5b61004b610087565b60405161005891906100b8565b60405180910390f35b61007b600480360381019061007691906100ff565b61008f565b005b610085610098565b005b5f8054905090565b805f8190555050565b5f8081905550565b5f819050919050565b6100b2816100a0565b82525050565b5f6020820190506100cb5f8301846100a9565b92915050565b5f80fd5b6100de816100a0565b81146100e8575f80fd5b50565b5f813590506100f9816100d5565b92915050565b5f60208284031215610114576101136100d1565b5b5f610121848285016100eb565b9150509291505056fea26469706673582212207616f95782356d5eef612498045f458648f3f7c19cace5351a3f38734ae1005964736f6c63430008160033",
					"opcodes": "PUSH1 0x80 PUSH1 0x40 MSTORE CALLVALUE DUP1 ISZERO PUSH2 0xF JUMPI PUSH0 DUP1 REVERT JUMPDEST POP PUSH2 0x160 DUP1 PUSH2 0x1D PUSH0 CODECOPY PUSH0 RETURN INVALID PUSH1 0x80 PUSH1 0x40 MSTORE CALLVALUE DUP1 ISZERO PUSH2 0xF JUMPI PUSH0 DUP1 REVERT JUMPDEST POP PUSH1 0x4 CALLDATASIZE LT PUSH2 0x3F JUMPI PUSH0 CALLDATALOAD PUSH1 0xE0 SHR DUP1 PUSH4 0x3BC5DE30 EQ PUSH2 0x43 JUMPI DUP1 PUSH4 0x5B4B73A9 EQ PUSH2 0x61 JUMPI DUP1 PUSH4 0xE0BA432A EQ PUSH2 0x7D JUMPI JUMPDEST PUSH0 DUP1 REVERT JUMPDEST PUSH2 0x4B PUSH2 0x87 JUMP JUMPDEST PUSH1 0x40 MLOAD PUSH2 0x58 SWAP2 SWAP1 PUSH2 0xB8 JUMP JUMPDEST PUSH1 0x40 MLOAD DUP1 SWAP2 SUB SWAP1 RETURN JUMPDEST PUSH2 0x7B PUSH1 0x4 DUP1 CALLDATASIZE SUB DUP2 ADD SWAP1 PUSH2 0x76 SWAP2 SWAP1 PUSH2 0xFF JUMP JUMPDEST PUSH2 0x8F JUMP JUMPDEST STOP JUMPDEST PUSH2 0x85 PUSH2 0x98 JUMP JUMPDEST STOP JUMPDEST PUSH0 DUP1 SLOAD SWAP1 POP SWAP1 JUMP JUMPDEST DUP1 PUSH0 DUP2 SWAP1 SSTORE POP POP JUMP JUMPDEST PUSH0 DUP1 DUP2 SWAP1 SSTORE POP JUMP JUMPDEST PUSH0 DUP2 SWAP1 POP SWAP2 SWAP1 POP JUMP JUMPDEST PUSH2 0xB2 DUP2 PUSH2 0xA0 JUMP JUMPDEST DUP3 MSTORE POP POP JUMP JUMPDEST PUSH0 PUSH1 0x20 DUP3 ADD SWAP1 POP PUSH2 0xCB PUSH0 DUP4 ADD DUP5 PUSH2 0xA9 JUMP JUMPDEST SWAP3 SWAP2 POP POP JUMP JUMPDEST PUSH0 DUP1 REVERT JUMPDEST PUSH2 0xDE DUP2 PUSH2 0xA0 JUMP JUMPDEST DUP2 EQ PUSH2 0xE8 JUMPI PUSH0 DUP1 REVERT JUMPDEST POP JUMP JUMPDEST PUSH0 DUP2 CALLDATALOAD SWAP1 POP PUSH2 0xF9 DUP2 PUSH2 0xD5 JUMP JUMPDEST SWAP3 SWAP2 POP POP JUMP JUMPDEST PUSH0 PUSH1 0x20 DUP3 DUP5 SUB SLT ISZERO PUSH2 0x114 JUMPI PUSH2 0x113 PUSH2 0xD1 JUMP JUMPDEST JUMPDEST PUSH0 PUSH2 0x121 DUP5 DUP3 DUP6 ADD PUSH2 0xEB JUMP JUMPDEST SWAP2 POP POP SWAP3 SWAP2 POP POP JUMP INVALID LOG2 PUSH5 0x6970667358 0x22 SLT KECCAK256 PUSH23 0x16F95782356D5EEF612498045F458648F3F7C19CACE535 BYTE EXTCODEHASH CODESIZE PUSH20 0x4AE1005964736F6C634300081600330000000000 "
				},
				"gasEstimates": {
					"creation": {
						"codeDepositCost": "70400",
						"executionCost": "115",
						"totalCost": "70515"
					},
					"external": {
						"deleteData()": "5178",
						"getData()": "2410",
						"setData(uint256)": "22514"
					}
				},
				"methodIdentifiers": {
					"deleteData()": "e0ba432a",
					"getData()": "3bc5de30",
					"setData(uint256)": "5b4b73a9"
				}
			},
			"storageLayout": {
				"storage": [
					{
						"astId": 3,
						"contract": "contracts/Storage.sol:SimpleStorage",
						"label": "storedData",
						"offset": 0,
						"slot": "0",
						"type": "t_uint256"
					}
				],
				"types": {
					"t_uint256": {
						"encoding": "inplace",
						"label": "uint256",
						"numberOfBytes": "32"
					}
				}
			},
			"userdoc": {
				"kind": "user",
				"methods": {},
				"version": 1
			}
		}
	}
}