{
	"contracts/StorageFactory.sol": {
		"StorageFactory": {
			"abi": [
				{
					"inputs": [],
					"name": "createSimpleStorageContract",
					"outputs": [],
					"stateMutability": "nonpayable",
					"type": "function"
				},
				{
					"inputs": [],
					"name": "simpleStorage",
					"outputs": [
						{
							"internalType": "contract SimpleStorage",
							"name": "",
							"type": "address"
						}
					],
					"stateMutability": "view",
					"type": "function"
				}
			],
			"devdoc": {
				"kind": "dev",
				"methods": {},
				"version": 1
			},
			"evm": {
				"assembly": "    /* \"contracts/StorageFactory.sol\":129:327  contract StorageFactory{... */\n  mstore(0x40, 0x80)\n  callvalue\n  dup1\n  iszero\n  tag_1\n  jumpi\n  0x00\n  dup1\n  revert\ntag_1:\n  pop\n  dataSize(sub_0)\n  dup1\n  dataOffset(sub_0)\n  0x00\n  codecopy\n  0x00\n  return\nstop\n\nsub_0: assembly {\n        /* \"contracts/StorageFactory.sol\":129:327  contract StorageFactory{... */\n      mstore(0x40, 0x80)\n      callvalue\n      dup1\n      iszero\n      tag_1\n      jumpi\n      0x00\n      dup1\n      revert\n    tag_1:\n      pop\n      jumpi(tag_2, lt(calldatasize, 0x04))\n      shr(0xe0, calldataload(0x00))\n      dup1\n      0x1dda6541\n      eq\n      tag_3\n      jumpi\n      dup1\n      0x6be0d6bf\n      eq\n      tag_4\n      jumpi\n    tag_2:\n      0x00\n      dup1\n      revert\n        /* \"contracts/StorageFactory.sol\":204:324  function createSimpleStorageContract()  public {    ... */\n    tag_3:\n      tag_5\n      tag_6\n      jump\t// in\n    tag_5:\n      stop\n        /* \"contracts/StorageFactory.sol\":161:195  SimpleStorage public simpleStorage */\n    tag_4:\n      tag_7\n      tag_8\n      jump\t// in\n    tag_7:\n      mload(0x40)\n      tag_9\n      swap2\n      swap1\n      tag_10\n      jump\t// in\n    tag_9:\n      mload(0x40)\n      dup1\n      swap2\n      sub\n      swap1\n      return\n        /* \"contracts/StorageFactory.sol\":204:324  function createSimpleStorageContract()  public {    ... */\n    tag_6:\n        /* \"contracts/StorageFactory.sol\":282:302  new  SimpleStorage() */\n      mload(0x40)\n      tag_12\n      swap1\n      tag_13\n      jump\t// in\n    tag_12:\n      mload(0x40)\n      dup1\n      swap2\n      sub\n      swap1\n      0x00\n      create\n      dup1\n      iszero\n      dup1\n      iszero\n      tag_14\n      jumpi\n      returndatasize\n      0x00\n      dup1\n      returndatacopy\n      revert(0x00, returndatasize)\n    tag_14:\n      pop\n        /* \"contracts/StorageFactory.sol\":266:279  simpleStorage */\n      0x00\n      dup1\n        /* \"contracts/StorageFactory.sol\":266:302  simpleStorage = new  SimpleStorage() */\n      0x0100\n      exp\n      dup2\n      sload\n      dup2\n      0xffffffffffffffffffffffffffffffffffffffff\n      mul\n      not\n      and\n      swap1\n      dup4\n      0xffffffffffffffffffffffffffffffffffffffff\n      and\n      mul\n      or\n      swap1\n      sstore\n      pop\n        /* \"contracts/StorageFactory.sol\":204:324  function createSimpleStorageContract()  public {    ... */\n      jump\t// out\n        /* \"contracts/StorageFactory.sol\":161:195  SimpleStorage public simpleStorage */\n    tag_8:\n      0x00\n      dup1\n      sload\n      swap1\n      0x0100\n      exp\n      swap1\n      div\n      0xffffffffffffffffffffffffffffffffffffffff\n      and\n      dup2\n      jump\t// out\n    tag_13:\n      dataSize(sub_0)\n      dup1\n      dataOffset(sub_0)\n      dup4\n      codecopy\n      add\n      swap1\n      jump\t// out\n        /* \"#utility.yul\":7:133   */\n    tag_15:\n        /* \"#utility.yul\":44:51   */\n      0x00\n        /* \"#utility.yul\":84:126   */\n      0xffffffffffffffffffffffffffffffffffffffff\n        /* \"#utility.yul\":77:82   */\n      dup3\n        /* \"#utility.yul\":73:127   */\n      and\n        /* \"#utility.yul\":62:127   */\n      swap1\n      pop\n        /* \"#utility.yul\":7:133   */\n      swap2\n      swap1\n      pop\n      jump\t// out\n        /* \"#utility.yul\":139:199   */\n    tag_16:\n        /* \"#utility.yul\":167:170   */\n      0x00\n        /* \"#utility.yul\":188:193   */\n      dup2\n        /* \"#utility.yul\":181:193   */\n      swap1\n      pop\n        /* \"#utility.yul\":139:199   */\n      swap2\n      swap1\n      pop\n      jump\t// out\n        /* \"#utility.yul\":205:347   */\n    tag_17:\n        /* \"#utility.yul\":255:264   */\n      0x00\n        /* \"#utility.yul\":288:341   */\n      tag_25\n        /* \"#utility.yul\":306:340   */\n      tag_26\n        /* \"#utility.yul\":315:339   */\n      tag_27\n        /* \"#utility.yul\":333:338   */\n      dup5\n        /* \"#utility.yul\":315:339   */\n      tag_15\n      jump\t// in\n    tag_27:\n        /* \"#utility.yul\":306:340   */\n      tag_16\n      jump\t// in\n    tag_26:\n        /* \"#utility.yul\":288:341   */\n      tag_15\n      jump\t// in\n    tag_25:\n        /* \"#utility.yul\":275:341   */\n      swap1\n      pop\n        /* \"#utility.yul\":205:347   */\n      swap2\n      swap1\n      pop\n      jump\t// out\n        /* \"#utility.yul\":353:479   */\n    tag_18:\n        /* \"#utility.yul\":403:412   */\n      0x00\n        /* \"#utility.yul\":436:473   */\n      tag_29\n        /* \"#utility.yul\":467:472   */\n      dup3\n        /* \"#utility.yul\":436:473   */\n      tag_17\n      jump\t// in\n    tag_29:\n        /* \"#utility.yul\":423:473   */\n      swap1\n      pop\n        /* \"#utility.yul\":353:479   */\n      swap2\n      swap1\n      pop\n      jump\t// out\n        /* \"#utility.yul\":485:631   */\n    tag_19:\n        /* \"#utility.yul\":555:564   */\n      0x00\n        /* \"#utility.yul\":588:625   */\n      tag_31\n        /* \"#utility.yul\":619:624   */\n      dup3\n        /* \"#utility.yul\":588:625   */\n      tag_18\n      jump\t// in\n    tag_31:\n        /* \"#utility.yul\":575:625   */\n      swap1\n      pop\n        /* \"#utility.yul\":485:631   */\n      swap2\n      swap1\n      pop\n      jump\t// out\n        /* \"#utility.yul\":637:808   */\n    tag_20:\n        /* \"#utility.yul\":744:801   */\n      tag_33\n        /* \"#utility.yul\":795:800   */\n      dup2\n        /* \"#utility.yul\":744:801   */\n      tag_19\n      jump\t// in\n    tag_33:\n        /* \"#utility.yul\":739:742   */\n      dup3\n        /* \"#utility.yul\":732:802   */\n      mstore\n        /* \"#utility.yul\":637:808   */\n      pop\n      pop\n      jump\t// out\n        /* \"#utility.yul\":814:1076   */\n    tag_10:\n        /* \"#utility.yul\":927:931   */\n      0x00\n        /* \"#utility.yul\":965:967   */\n      0x20\n        /* \"#utility.yul\":954:963   */\n      dup3\n        /* \"#utility.yul\":950:968   */\n      add\n        /* \"#utility.yul\":942:968   */\n      swap1\n      pop\n        /* \"#utility.yul\":978:1069   */\n      tag_35\n        /* \"#utility.yul\":1066:1067   */\n      0x00\n        /* \"#utility.yul\":1055:1064   */\n      dup4\n        /* \"#utility.yul\":1051:1068   */\n      add\n        /* \"#utility.yul\":1042:1048   */\n      dup5\n        /* \"#utility.yul\":978:1069   */\n      tag_20\n      jump\t// in\n    tag_35:\n        /* \"#utility.yul\":814:1076   */\n      swap3\n      swap2\n      pop\n      pop\n      jump\t// out\n    stop\n\n    sub_0: assembly {\n            /* \"contracts/Storage.sol\":73:366  contract SimpleStorage{... */\n          mstore(0x40, 0x80)\n          callvalue\n          dup1\n          iszero\n          tag_1\n          jumpi\n          0x00\n          dup1\n          revert\n        tag_1:\n          pop\n          dataSize(sub_0)\n          dup1\n          dataOffset(sub_0)\n          0x00\n          codecopy\n          0x00\n          return\n        stop\n\n        sub_0: assembly {\n                /* \"contracts/Storage.sol\":73:366  contract SimpleStorage{... */\n              mstore(0x40, 0x80)\n              callvalue\n              dup1\n              iszero\n              tag_1\n              jumpi\n              0x00\n              dup1\n              revert\n            tag_1:\n              pop\n              jumpi(tag_2, lt(calldatasize, 0x04))\n              shr(0xe0, calldataload(0x00))\n              dup1\n              0x3bc5de30\n              eq\n              tag_3\n              jumpi\n              dup1\n              0x5b4b73a9\n              eq\n              tag_4\n              jumpi\n              dup1\n              0xe0ba432a\n              eq\n              tag_5\n              jumpi\n            tag_2:\n              0x00\n              dup1\n              revert\n                /* \"contracts/Storage.sol\":199:288  function getData() public view returns  (uint) {... */\n            tag_3:\n              tag_6\n              tag_7\n              jump\t// in\n            tag_6:\n              mload(0x40)\n              tag_8\n              swap2\n              swap1\n              tag_9\n              jump\t// in\n            tag_8:\n              mload(0x40)\n              dup1\n              swap2\n              sub\n              swap1\n              return\n                /* \"contracts/Storage.sol\":126:191  function setData(uint _data) public  {... */\n            tag_4:\n              tag_10\n              0x04\n              dup1\n              calldatasize\n              sub\n              dup2\n              add\n              swap1\n              tag_11\n              swap2\n              swap1\n              tag_12\n              jump\t// in\n            tag_11:\n              tag_13\n              jump\t// in\n            tag_10:\n              stop\n                /* \"contracts/Storage.sol\":299:361  function deleteData() public {... */\n            tag_5:\n              tag_14\n              tag_15\n              jump\t// in\n            tag_14:\n              stop\n                /* \"contracts/Storage.sol\":199:288  function getData() public view returns  (uint) {... */\n            tag_7:\n                /* \"contracts/Storage.sol\":240:244  uint */\n              0x00\n                /* \"contracts/Storage.sol\":265:275  storedData */\n              dup1\n              sload\n                /* \"contracts/Storage.sol\":257:275  return  storedData */\n              swap1\n              pop\n                /* \"contracts/Storage.sol\":199:288  function getData() public view returns  (uint) {... */\n              swap1\n              jump\t// out\n                /* \"contracts/Storage.sol\":126:191  function setData(uint _data) public  {... */\n            tag_13:\n                /* \"contracts/Storage.sol\":183:188  _data */\n              dup1\n                /* \"contracts/Storage.sol\":170:180  storedData */\n              0x00\n                /* \"contracts/Storage.sol\":170:188  storedData = _data */\n              dup2\n              swap1\n              sstore\n              pop\n                /* \"contracts/Storage.sol\":126:191  function setData(uint _data) public  {... */\n              pop\n              jump\t// out\n                /* \"contracts/Storage.sol\":299:361  function deleteData() public {... */\n            tag_15:\n                /* \"contracts/Storage.sol\":352:353  0 */\n              0x00\n                /* \"contracts/Storage.sol\":339:349  storedData */\n              dup1\n                /* \"contracts/Storage.sol\":339:353  storedData = 0 */\n              dup2\n              swap1\n              sstore\n              pop\n                /* \"contracts/Storage.sol\":299:361  function deleteData() public {... */\n              jump\t// out\n                /* \"#utility.yul\":7:84   */\n            tag_19:\n                /* \"#utility.yul\":44:51   */\n              0x00\n                /* \"#utility.yul\":73:78   */\n              dup2\n                /* \"#utility.yul\":62:78   */\n              swap1\n              pop\n                /* \"#utility.yul\":7:84   */\n              swap2\n              swap1\n              pop\n              jump\t// out\n                /* \"#utility.yul\":90:208   */\n            tag_20:\n                /* \"#utility.yul\":177:201   */\n              tag_29\n                /* \"#utility.yul\":195:200   */\n              dup2\n                /* \"#utility.yul\":177:201   */\n              tag_19\n              jump\t// in\n            tag_29:\n                /* \"#utility.yul\":172:175   */\n              dup3\n                /* \"#utility.yul\":165:202   */\n              mstore\n                /* \"#utility.yul\":90:208   */\n              pop\n              pop\n              jump\t// out\n                /* \"#utility.yul\":214:436   */\n            tag_9:\n                /* \"#utility.yul\":307:311   */\n              0x00\n                /* \"#utility.yul\":345:347   */\n              0x20\n                /* \"#utility.yul\":334:343   */\n              dup3\n                /* \"#utility.yul\":330:348   */\n              add\n                /* \"#utility.yul\":322:348   */\n              swap1\n              pop\n                /* \"#utility.yul\":358:429   */\n              tag_31\n                /* \"#utility.yul\":426:427   */\n              0x00\n                /* \"#utility.yul\":415:424   */\n              dup4\n                /* \"#utility.yul\":411:428   */\n              add\n                /* \"#utility.yul\":402:408   */\n              dup5\n                /* \"#utility.yul\":358:429   */\n              tag_20\n              jump\t// in\n            tag_31:\n                /* \"#utility.yul\":214:436   */\n              swap3\n              swap2\n              pop\n              pop\n              jump\t// out\n                /* \"#utility.yul\":523:640   */\n            tag_22:\n                /* \"#utility.yul\":632:633   */\n              0x00\n                /* \"#utility.yul\":629:630   */\n              dup1\n                /* \"#utility.yul\":622:634   */\n              revert\n                /* \"#utility.yul\":769:891   */\n            tag_24:\n                /* \"#utility.yul\":842:866   */\n              tag_36\n                /* \"#utility.yul\":860:865   */\n              dup2\n                /* \"#utility.yul\":842:866   */\n              tag_19\n              jump\t// in\n            tag_36:\n                /* \"#utility.yul\":835:840   */\n              dup2\n                /* \"#utility.yul\":832:867   */\n              eq\n                /* \"#utility.yul\":822:885   */\n              tag_37\n              jumpi\n                /* \"#utility.yul\":881:882   */\n              0x00\n                /* \"#utility.yul\":878:879   */\n              dup1\n                /* \"#utility.yul\":871:883   */\n              revert\n                /* \"#utility.yul\":822:885   */\n            tag_37:\n                /* \"#utility.yul\":769:891   */\n              pop\n              jump\t// out\n                /* \"#utility.yul\":897:1036   */\n            tag_25:\n                /* \"#utility.yul\":943:948   */\n              0x00\n                /* \"#utility.yul\":981:987   */\n              dup2\n                /* \"#utility.yul\":968:988   */\n              calldataload\n                /* \"#utility.yul\":959:988   */\n              swap1\n              pop\n                /* \"#utility.yul\":997:1030   */\n              tag_39\n                /* \"#utility.yul\":1024:1029   */\n              dup2\n                /* \"#utility.yul\":997:1030   */\n              tag_24\n              jump\t// in\n            tag_39:\n                /* \"#utility.yul\":897:1036   */\n              swap3\n              swap2\n              pop\n              pop\n              jump\t// out\n                /* \"#utility.yul\":1042:1371   */\n            tag_12:\n                /* \"#utility.yul\":1101:1107   */\n              0x00\n                /* \"#utility.yul\":1150:1152   */\n              0x20\n                /* \"#utility.yul\":1138:1147   */\n              dup3\n                /* \"#utility.yul\":1129:1136   */\n              dup5\n                /* \"#utility.yul\":1125:1148   */\n              sub\n                /* \"#utility.yul\":1121:1153   */\n              slt\n                /* \"#utility.yul\":1118:1237   */\n              iszero\n              tag_41\n              jumpi\n                /* \"#utility.yul\":1156:1235   */\n              tag_42\n              tag_22\n              jump\t// in\n            tag_42:\n                /* \"#utility.yul\":1118:1237   */\n            tag_41:\n                /* \"#utility.yul\":1276:1277   */\n              0x00\n                /* \"#utility.yul\":1301:1354   */\n              tag_43\n                /* \"#utility.yul\":1346:1353   */\n              dup5\n                /* \"#utility.yul\":1337:1343   */\n              dup3\n                /* \"#utility.yul\":1326:1335   */\n              dup6\n                /* \"#utility.yul\":1322:1344   */\n              add\n                /* \"#utility.yul\":1301:1354   */\n              tag_25\n              jump\t// in\n            tag_43:\n                /* \"#utility.yul\":1291:1354   */\n              swap2\n              pop\n                /* \"#utility.yul\":1247:1364   */\n              pop\n                /* \"#utility.yul\":1042:1371   */\n              swap3\n              swap2\n              pop\n              pop\n              jump\t// out\n\n            auxdata: 0xa26469706673582212207616f95782356d5eef612498045f458648f3f7c19cace5351a3f38734ae1005964736f6c63430008160033\n        }\n    }\n\n    auxdata: 0xa26469706673582212202f35c0c41ee77098ec510383daaeff73239df316d2a947fa489c94f98575bb4a64736f6c63430008160033\n}\n",
				"bytecode": {
					"linkReferences": {},
					"object": "608060405234801561000f575f80fd5b5061033c8061001d5f395ff3fe608060405234801561000f575f80fd5b5060043610610034575f3560e01c80631dda6541146100385780636be0d6bf14610042575b5f80fd5b610040610060565b005b61004a6100c6565b6040516100579190610170565b60405180910390f35b60405161006c906100e9565b604051809103905ff080158015610085573d5f803e3d5ffd5b505f806101000a81548173ffffffffffffffffffffffffffffffffffffffff021916908373ffffffffffffffffffffffffffffffffffffffff160217905550565b5f8054906101000a900473ffffffffffffffffffffffffffffffffffffffff1681565b61017d8061018a83390190565b5f73ffffffffffffffffffffffffffffffffffffffff82169050919050565b5f819050919050565b5f61013861013361012e846100f6565b610115565b6100f6565b9050919050565b5f6101498261011e565b9050919050565b5f61015a8261013f565b9050919050565b61016a81610150565b82525050565b5f6020820190506101835f830184610161565b9291505056fe608060405234801561000f575f80fd5b506101608061001d5f395ff3fe608060405234801561000f575f80fd5b506004361061003f575f3560e01c80633bc5de30146100435780635b4b73a914610061578063e0ba432a1461007d575b5f80fd5b61004b610087565b60405161005891906100b8565b60405180910390f35b61007b600480360381019061007691906100ff565b61008f565b005b610085610098565b005b5f8054905090565b805f8190555050565b5f8081905550565b5f819050919050565b6100b2816100a0565b82525050565b5f6020820190506100cb5f8301846100a9565b92915050565b5f80fd5b6100de816100a0565b81146100e8575f80fd5b50565b5f813590506100f9816100d5565b92915050565b5f60208284031215610114576101136100d1565b5b5f610121848285016100eb565b9150509291505056fea26469706673582212207616f95782356d5eef612498045f458648f3f7c19cace5351a3f38734ae1005964736f6c63430008160033a26469706673582212202f35c0c41ee77098ec510383daaeff73239df316d2a947fa489c94f98575bb4a64736f6c63430008160033",
					"opcodes": "PUSH1 0x80 PUSH1 0x40 MSTORE CALLVALUE DUP1 ISZERO PUSH2 0xF JUMPI PUSH0 DUP1 REVERT JUMPDEST POP PUSH2 0x33C DUP1 PUSH2 0x1D PUSH0 CODECOPY PUSH0 RETURN INVALID PUSH1 0x80 PUSH1 0x40 MSTORE CALLVALUE DUP1 ISZERO PUSH2 0xF JUMPI PUSH0 DUP1 REVERT JUMPDEST POP PUSH1 0x4 CALLDATASIZE LT PUSH2 0x34 JUMPI PUSH0 CALLDATALOAD PUSH1 0xE0 SHR DUP1 PUSH4 0x1DDA6541 EQ PUSH2 0x38 JUMPI DUP1 PUSH4 0x6BE0D6BF EQ PUSH2 0x42 JUMPI JUMPDEST PUSH0 DUP1 REVERT JUMPDEST PUSH2 0x40 PUSH2 0x60 JUMP JUMPDEST STOP JUMPDEST PUSH2 0x4A PUSH2 0xC6 JUMP JUMPDEST PUSH1 0x40 MLOAD PUSH2 0x57 SWAP2 SWAP1 PUSH2 0x170 JUMP JUMPDEST PUSH1 0x40 MLOAD DUP1 SWAP2 SUB SWAP1 RETURN JUMPDEST PUSH1 0x40 MLOAD PUSH2 0x6C SWAP1 PUSH2 0xE9 JUMP JUMPDEST PUSH1 0x40 MLOAD DUP1 SWAP2 SUB SWAP1 PUSH0 CREATE DUP1 ISZERO DUP1 ISZERO PUSH2 0x85 JUMPI RETURNDATASIZE PUSH0 DUP1 RETURNDATACOPY RETURNDATASIZE PUSH0 REVERT JUMPDEST POP PUSH0 DUP1 PUSH2 0x100 EXP DUP2 SLOAD DUP2 PUSH20 0xFFFFFFFFFFFFFFFFFFFFFFFFFFFFFFFFFFFFFFFF MUL NOT AND SWAP1 DUP4 PUSH20 0xFFFFFFFFFFFFFFFFFFFFFFFFFFFFFFFFFFFFFFFF AND MUL OR SWAP1 SSTORE POP JUMP JUMPDEST PUSH0 DUP1 SLOAD SWAP1 PUSH2 0x100 EXP SWAP1 DIV PUSH20 0xFFFFFFFFFFFFFFFFFFFFFFFFFFFFFFFFFFFFFFFF AND DUP2 JUMP JUMPDEST PUSH2 0x17D DUP1 PUSH2 0x18A DUP4 CODECOPY ADD SWAP1 JUMP JUMPDEST PUSH0 PUSH20 0xFFFFFFFFFFFFFFFFFFFFFFFFFFFFFFFFFFFFFFFF DUP3 AND SWAP1 POP SWAP2 SWAP1 POP JUMP JUMPDEST PUSH0 DUP2 SWAP1 POP SWAP2 SWAP1 POP JUMP JUMPDEST PUSH0 PUSH2 0x138 PUSH2 0x133 PUSH2 0x12E DUP5 PUSH2 0xF6 JUMP JUMPDEST PUSH2 0x115 JUMP JUMPDEST PUSH2 0xF6 JUMP JUMPDEST SWAP1 POP SWAP2 SWAP1 POP JUMP JUMPDEST PUSH0 PUSH2 0x149 DUP3 PUSH2 0x11E JUMP JUMPDEST SWAP1 POP SWAP2 SWAP1 POP JUMP JUMPDEST PUSH0 PUSH2 0x15A DUP3 PUSH2 0x13F JUMP JUMPDEST SWAP1 POP SWAP2 SWAP1 POP JUMP JUMPDEST PUSH2 0x16A DUP2 PUSH2 0x150 JUMP JUMPDEST DUP3 MSTORE POP POP JUMP JUMPDEST PUSH0 PUSH1 0x20 DUP3 ADD SWAP1 POP PUSH2 0x183 PUSH0 DUP4 ADD DUP5 PUSH2 0x161 JUMP JUMPDEST SWAP3 SWAP2 POP POP JUMP INVALID PUSH1 0x80 PUSH1 0x40 MSTORE CALLVALUE DUP1 ISZERO PUSH2 0xF JUMPI PUSH0 DUP1 REVERT JUMPDEST POP PUSH2 0x160 DUP1 PUSH2 0x1D PUSH0 CODECOPY PUSH0 RETURN INVALID PUSH1 0x80 PUSH1 0x40 MSTORE CALLVALUE DUP1 ISZERO PUSH2 0xF JUMPI PUSH0 DUP1 REVERT JUMPDEST POP PUSH1 0x4 CALLDATASIZE LT PUSH2 0x3F JUMPI PUSH0 CALLDATALOAD PUSH1 0xE0 SHR DUP1 PUSH4 0x3BC5DE30 EQ PUSH2 0x43 JUMPI DUP1 PUSH4 0x5B4B73A9 EQ PUSH2 0x61 JUMPI DUP1 PUSH4 0xE0BA432A EQ PUSH2 0x7D JUMPI JUMPDEST PUSH0 DUP1 REVERT JUMPDEST PUSH2 0x4B PUSH2 0x87 JUMP JUMPDEST PUSH1 0x40 MLOAD PUSH2 0x58 SWAP2 SWAP1 PUSH2 0xB8 JUMP JUMPDEST PUSH1 0x40 MLOAD DUP1 SWAP2 SUB SWAP1 RETURN JUMPDEST PUSH2 0x7B PUSH1 0x4 DUP1 CALLDATASIZE SUB DUP2 ADD SWAP1 PUSH2 0x76 SWAP2 SWAP1 PUSH2 0xFF JUMP JUMPDEST PUSH2 0x8F JUMP JUMPDEST STOP JUMPDEST PUSH2 0x85 PUSH2 0x98 JUMP JUMPDEST STOP JUMPDEST PUSH0 DUP1 SLOAD SWAP1 POP SWAP1 JUMP JUMPDEST DUP1 PUSH0 DUP2 SWAP1 SSTORE POP POP JUMP JUMPDEST PUSH0 DUP1 DUP2 SWAP1 SSTORE POP JUMP JUMPDEST PUSH0 DUP2 SWAP1 POP SWAP2 SWAP1 POP JUMP JUMPDEST PUSH2 0xB2 DUP2 PUSH2 0xA0 JUMP JUMPDEST DUP3 MSTORE POP POP JUMP JUMPDEST PUSH0 PUSH1 0x20 DUP3 ADD SWAP1 POP PUSH2 0xCB PUSH0 DUP4 ADD DUP5 PUSH2 0xA9 JUMP JUMPDEST SWAP3 SWAP2 POP POP JUMP JUMPDEST PUSH0 DUP1 REVERT JUMPDEST PUSH2 0xDE DUP2 PUSH2 0xA0 JUMP JUMPDEST DUP2 EQ PUSH2 0xE8 JUMPI PUSH0 DUP1 REVERT JUMPDEST POP JUMP JUMPDEST PUSH0 DUP2 CALLDATALOAD SWAP1 POP PUSH2 0xF9 DUP2 PUSH2 0xD5 JUMP JUMPDEST SWAP3 SWAP2 POP POP JUMP JUMPDEST PUSH0 PUSH1 0x20 DUP3 DUP5 SUB SLT ISZERO PUSH2 0x114 JUMPI PUSH2 0x113 PUSH2 0xD1 JUMP JUMPDEST JUMPDEST PUSH0 PUSH2 0x121 DUP5 DUP3 DUP6 ADD PUSH2 0xEB JUMP JUMPDEST SWAP2 POP POP SWAP3 SWAP2 POP POP JUMP INVALID LOG2 PUSH5 0x6970667358 0x22 SLT KECCAK256 PUSH23 0x16F95782356D5EEF612498045F458648F3F7C19CACE535 BYTE EXTCODEHASH CODESIZE PUSH20 0x4AE1005964736F6C63430008160033A264697066 PUSH20 0x582212202F35C0C41EE77098EC510383DAAEFF73 0x23 SWAP14 RETURN AND 0xD2 0xA9 SELFBALANCE STATICCALL BASEFEE SWAP13 SWAP5 0xF9 DUP6 PUSH22 0xBB4A64736F6C63430008160033000000000000000000 "
				},
				"gasEstimates": {
					"creation": {
						"codeDepositCost": "165600",
						"executionCost": "206",
						"totalCost": "165806"
					},
					"external": {
						"createSimpleStorageContract()": "infinite",
						"simpleStorage()": "infinite"
					}
				},
				"methodIdentifiers": {
					"createSimpleStorageContract()": "1dda6541",
					"simpleStorage()": "6be0d6bf"
				}
			},
			"storageLayout": {
				"storage": [
					{
						"astId": 37,
						"contract": "contracts/StorageFactory.sol:StorageFactory",
						"label": "simpleStorage",
						"offset": 0,
						"slot": "0",
						"type": "t_contract(SimpleStorage)30"
					}
				],
				"types": {
					"t_contract(SimpleStorage)30": {
						"encoding": "inplace",
						"label": "contract SimpleStorage",
						"numberOfBytes": "20"
					}
				}
			},
			"userdoc": {
				"kind": "user",
				"methods": {},
				"version": 1
			}
		}
	}
}