{
	"contracts/Calculator.sol": {
		"Calculator": {
			"abi": [
				{
					"inputs": [
						{
							"internalType": "uint256",
							"name": "a",
							"type": "uint256"
						},
						{
							"internalType": "uint256",
							"name": "b",
							"type": "uint256"
						}
					],
					"name": "calculateDifference",
					"outputs": [
						{
							"internalType": "uint256",
							"name": "",
							"type": "uint256"
						}
					],
					"stateMutability": "pure",
					"type": "function"
				},
				{
					"inputs": [
						{
							"internalType": "uint256",
							"name": "a",
							"type": "uint256"
						},
						{
							"internalType": "uint256",
							"name": "b",
							"type": "uint256"
						}
					],
					"name": "calculateSum",
					"outputs": [
						{
							"internalType": "uint256",
							"name": "",
							"type": "uint256"
						}
					],
					"stateMutability": "pure",
					"type": "function"
				}
			],
			"devdoc": {
				"kind": "dev",
				"methods": {},
				"version": 1
			},
			"evm": {
				"assembly": "    /* \"contracts/Calculator.sol\":99:439  contract Calculator {... */\n  mstore(0x40, 0x80)\n  callvalue\n  dup1\n  iszero\n  tag_1\n  jumpi\n  0x00\n  dup1\n  revert\ntag_1:\n  pop\n  dataSize(sub_0)\n  dup1\n  dataOffset(sub_0)\n  0x00\n  codecopy\n  0x00\n  return\nstop\n\nsub_0: assembly {\n        /* \"contracts/Calculator.sol\":99:439  contract Calculator {... */\n      mstore(0x40, 0x80)\n      callvalue\n      dup1\n      iszero\n      tag_1\n      jumpi\n      0x00\n      dup1\n      revert\n    tag_1:\n      pop\n      jumpi(tag_2, lt(calldatasize, 0x04))\n      shr(0xe0, calldataload(0x00))\n      dup1\n      0x5b644c34\n      eq\n      tag_3\n      jumpi\n      dup1\n      0xea4097bd\n      eq\n      tag_4\n      jumpi\n    tag_2:\n      0x00\n      dup1\n      revert\n        /* \"contracts/Calculator.sol\":279:436  function calculateDifference(uint256 a, uint256 b) public pure returns (uint256) {... */\n    tag_3:\n      tag_5\n      0x04\n      dup1\n      calldatasize\n      sub\n      dup2\n      add\n      swap1\n      tag_6\n      swap2\n      swap1\n      tag_7\n      jump\t// in\n    tag_6:\n      tag_8\n      jump\t// in\n    tag_5:\n      mload(0x40)\n      tag_9\n      swap2\n      swap1\n      tag_10\n      jump\t// in\n    tag_9:\n      mload(0x40)\n      dup1\n      swap2\n      sub\n      swap1\n      return\n        /* \"contracts/Calculator.sol\":126:271  function calculateSum(uint256 a, uint256 b) public pure returns (uint256) {... */\n    tag_4:\n      tag_11\n      0x04\n      dup1\n      calldatasize\n      sub\n      dup2\n      add\n      swap1\n      tag_12\n      swap2\n      swap1\n      tag_7\n      jump\t// in\n    tag_12:\n      tag_13\n      jump\t// in\n    tag_11:\n      mload(0x40)\n      tag_14\n      swap2\n      swap1\n      tag_10\n      jump\t// in\n    tag_14:\n      mload(0x40)\n      dup1\n      swap2\n      sub\n      swap1\n      return\n        /* \"contracts/Calculator.sol\":279:436  function calculateDifference(uint256 a, uint256 b) public pure returns (uint256) {... */\n    tag_8:\n        /* \"contracts/Calculator.sol\":351:358  uint256 */\n      0x00\n        /* \"contracts/Calculator.sol\":378:404  MathLibrary.subtract(a, b) */\n      tag_16\n        /* \"contracts/Calculator.sol\":399:400  a */\n      dup4\n        /* \"contracts/Calculator.sol\":402:403  b */\n      dup4\n        /* \"contracts/Calculator.sol\":378:398  MathLibrary.subtract */\n      tag_17\n        /* \"contracts/Calculator.sol\":378:404  MathLibrary.subtract(a, b) */\n      jump\t// in\n    tag_16:\n        /* \"contracts/Calculator.sol\":371:404  return MathLibrary.subtract(a, b) */\n      swap1\n      pop\n        /* \"contracts/Calculator.sol\":279:436  function calculateDifference(uint256 a, uint256 b) public pure returns (uint256) {... */\n      swap3\n      swap2\n      pop\n      pop\n      jump\t// out\n        /* \"contracts/Calculator.sol\":126:271  function calculateSum(uint256 a, uint256 b) public pure returns (uint256) {... */\n    tag_13:\n        /* \"contracts/Calculator.sol\":191:198  uint256 */\n      0x00\n        /* \"contracts/Calculator.sol\":218:239  MathLibrary.add(a, b) */\n      tag_19\n        /* \"contracts/Calculator.sol\":234:235  a */\n      dup4\n        /* \"contracts/Calculator.sol\":237:238  b */\n      dup4\n        /* \"contracts/Calculator.sol\":218:233  MathLibrary.add */\n      tag_20\n        /* \"contracts/Calculator.sol\":218:239  MathLibrary.add(a, b) */\n      jump\t// in\n    tag_19:\n        /* \"contracts/Calculator.sol\":211:239  return MathLibrary.add(a, b) */\n      swap1\n      pop\n        /* \"contracts/Calculator.sol\":126:271  function calculateSum(uint256 a, uint256 b) public pure returns (uint256) {... */\n      swap3\n      swap2\n      pop\n      pop\n      jump\t// out\n        /* \"library/Math.sol\":202:305  function subtract(uint256 a, uint256 b) internal pure returns (uint256) {... */\n    tag_17:\n        /* \"library/Math.sol\":265:272  uint256 */\n      0x00\n        /* \"library/Math.sol\":296:297  b */\n      dup2\n        /* \"library/Math.sol\":292:293  a */\n      dup4\n        /* \"library/Math.sol\":292:297  a - b */\n      tag_22\n      swap2\n      swap1\n      tag_23\n      jump\t// in\n    tag_22:\n        /* \"library/Math.sol\":285:297  return a - b */\n      swap1\n      pop\n        /* \"library/Math.sol\":202:305  function subtract(uint256 a, uint256 b) internal pure returns (uint256) {... */\n      swap3\n      swap2\n      pop\n      pop\n      jump\t// out\n        /* \"library/Math.sol\":96:194  function add(uint256 a, uint256 b) internal pure returns (uint256) {... */\n    tag_20:\n        /* \"library/Math.sol\":154:161  uint256 */\n      0x00\n        /* \"library/Math.sol\":185:186  b */\n      dup2\n        /* \"library/Math.sol\":181:182  a */\n      dup4\n        /* \"library/Math.sol\":181:186  a + b */\n      tag_25\n      swap2\n      swap1\n      tag_26\n      jump\t// in\n    tag_25:\n        /* \"library/Math.sol\":174:186  return a + b */\n      swap1\n      pop\n        /* \"library/Math.sol\":96:194  function add(uint256 a, uint256 b) internal pure returns (uint256) {... */\n      swap3\n      swap2\n      pop\n      pop\n      jump\t// out\n        /* \"#utility.yul\":88:205   */\n    tag_28:\n        /* \"#utility.yul\":197:198   */\n      0x00\n        /* \"#utility.yul\":194:195   */\n      dup1\n        /* \"#utility.yul\":187:199   */\n      revert\n        /* \"#utility.yul\":334:411   */\n    tag_30:\n        /* \"#utility.yul\":371:378   */\n      0x00\n        /* \"#utility.yul\":400:405   */\n      dup2\n        /* \"#utility.yul\":389:405   */\n      swap1\n      pop\n        /* \"#utility.yul\":334:411   */\n      swap2\n      swap1\n      pop\n      jump\t// out\n        /* \"#utility.yul\":417:539   */\n    tag_31:\n        /* \"#utility.yul\":490:514   */\n      tag_41\n        /* \"#utility.yul\":508:513   */\n      dup2\n        /* \"#utility.yul\":490:514   */\n      tag_30\n      jump\t// in\n    tag_41:\n        /* \"#utility.yul\":483:488   */\n      dup2\n        /* \"#utility.yul\":480:515   */\n      eq\n        /* \"#utility.yul\":470:533   */\n      tag_42\n      jumpi\n        /* \"#utility.yul\":529:530   */\n      0x00\n        /* \"#utility.yul\":526:527   */\n      dup1\n        /* \"#utility.yul\":519:531   */\n      revert\n        /* \"#utility.yul\":470:533   */\n    tag_42:\n        /* \"#utility.yul\":417:539   */\n      pop\n      jump\t// out\n        /* \"#utility.yul\":545:684   */\n    tag_32:\n        /* \"#utility.yul\":591:596   */\n      0x00\n        /* \"#utility.yul\":629:635   */\n      dup2\n        /* \"#utility.yul\":616:636   */\n      calldataload\n        /* \"#utility.yul\":607:636   */\n      swap1\n      pop\n        /* \"#utility.yul\":645:678   */\n      tag_44\n        /* \"#utility.yul\":672:677   */\n      dup2\n        /* \"#utility.yul\":645:678   */\n      tag_31\n      jump\t// in\n    tag_44:\n        /* \"#utility.yul\":545:684   */\n      swap3\n      swap2\n      pop\n      pop\n      jump\t// out\n        /* \"#utility.yul\":690:1164   */\n    tag_7:\n        /* \"#utility.yul\":758:764   */\n      0x00\n        /* \"#utility.yul\":766:772   */\n      dup1\n        /* \"#utility.yul\":815:817   */\n      0x40\n        /* \"#utility.yul\":803:812   */\n      dup4\n        /* \"#utility.yul\":794:801   */\n      dup6\n        /* \"#utility.yul\":790:813   */\n      sub\n        /* \"#utility.yul\":786:818   */\n      slt\n        /* \"#utility.yul\":783:902   */\n      iszero\n      tag_46\n      jumpi\n        /* \"#utility.yul\":821:900   */\n      tag_47\n      tag_28\n      jump\t// in\n    tag_47:\n        /* \"#utility.yul\":783:902   */\n    tag_46:\n        /* \"#utility.yul\":941:942   */\n      0x00\n        /* \"#utility.yul\":966:1019   */\n      tag_48\n        /* \"#utility.yul\":1011:1018   */\n      dup6\n        /* \"#utility.yul\":1002:1008   */\n      dup3\n        /* \"#utility.yul\":991:1000   */\n      dup7\n        /* \"#utility.yul\":987:1009   */\n      add\n        /* \"#utility.yul\":966:1019   */\n      tag_32\n      jump\t// in\n    tag_48:\n        /* \"#utility.yul\":956:1019   */\n      swap3\n      pop\n        /* \"#utility.yul\":912:1029   */\n      pop\n        /* \"#utility.yul\":1068:1070   */\n      0x20\n        /* \"#utility.yul\":1094:1147   */\n      tag_49\n        /* \"#utility.yul\":1139:1146   */\n      dup6\n        /* \"#utility.yul\":1130:1136   */\n      dup3\n        /* \"#utility.yul\":1119:1128   */\n      dup7\n        /* \"#utility.yul\":1115:1137   */\n      add\n        /* \"#utility.yul\":1094:1147   */\n      tag_32\n      jump\t// in\n    tag_49:\n        /* \"#utility.yul\":1084:1147   */\n      swap2\n      pop\n        /* \"#utility.yul\":1039:1157   */\n      pop\n        /* \"#utility.yul\":690:1164   */\n      swap3\n      pop\n      swap3\n      swap1\n      pop\n      jump\t// out\n        /* \"#utility.yul\":1170:1288   */\n    tag_33:\n        /* \"#utility.yul\":1257:1281   */\n      tag_51\n        /* \"#utility.yul\":1275:1280   */\n      dup2\n        /* \"#utility.yul\":1257:1281   */\n      tag_30\n      jump\t// in\n    tag_51:\n        /* \"#utility.yul\":1252:1255   */\n      dup3\n        /* \"#utility.yul\":1245:1282   */\n      mstore\n        /* \"#utility.yul\":1170:1288   */\n      pop\n      pop\n      jump\t// out\n        /* \"#utility.yul\":1294:1516   */\n    tag_10:\n        /* \"#utility.yul\":1387:1391   */\n      0x00\n        /* \"#utility.yul\":1425:1427   */\n      0x20\n        /* \"#utility.yul\":1414:1423   */\n      dup3\n        /* \"#utility.yul\":1410:1428   */\n      add\n        /* \"#utility.yul\":1402:1428   */\n      swap1\n      pop\n        /* \"#utility.yul\":1438:1509   */\n      tag_53\n        /* \"#utility.yul\":1506:1507   */\n      0x00\n        /* \"#utility.yul\":1495:1504   */\n      dup4\n        /* \"#utility.yul\":1491:1508   */\n      add\n        /* \"#utility.yul\":1482:1488   */\n      dup5\n        /* \"#utility.yul\":1438:1509   */\n      tag_33\n      jump\t// in\n    tag_53:\n        /* \"#utility.yul\":1294:1516   */\n      swap3\n      swap2\n      pop\n      pop\n      jump\t// out\n        /* \"#utility.yul\":1522:1702   */\n    tag_34:\n        /* \"#utility.yul\":1570:1647   */\n      0x4e487b7100000000000000000000000000000000000000000000000000000000\n        /* \"#utility.yul\":1567:1568   */\n      0x00\n        /* \"#utility.yul\":1560:1648   */\n      mstore\n        /* \"#utility.yul\":1667:1671   */\n      0x11\n        /* \"#utility.yul\":1664:1665   */\n      0x04\n        /* \"#utility.yul\":1657:1672   */\n      mstore\n        /* \"#utility.yul\":1691:1695   */\n      0x24\n        /* \"#utility.yul\":1688:1689   */\n      0x00\n        /* \"#utility.yul\":1681:1696   */\n      revert\n        /* \"#utility.yul\":1708:1902   */\n    tag_23:\n        /* \"#utility.yul\":1748:1752   */\n      0x00\n        /* \"#utility.yul\":1768:1788   */\n      tag_56\n        /* \"#utility.yul\":1786:1787   */\n      dup3\n        /* \"#utility.yul\":1768:1788   */\n      tag_30\n      jump\t// in\n    tag_56:\n        /* \"#utility.yul\":1763:1788   */\n      swap2\n      pop\n        /* \"#utility.yul\":1802:1822   */\n      tag_57\n        /* \"#utility.yul\":1820:1821   */\n      dup4\n        /* \"#utility.yul\":1802:1822   */\n      tag_30\n      jump\t// in\n    tag_57:\n        /* \"#utility.yul\":1797:1822   */\n      swap3\n      pop\n        /* \"#utility.yul\":1846:1847   */\n      dup3\n        /* \"#utility.yul\":1843:1844   */\n      dup3\n        /* \"#utility.yul\":1839:1848   */\n      sub\n        /* \"#utility.yul\":1831:1848   */\n      swap1\n      pop\n        /* \"#utility.yul\":1870:1871   */\n      dup2\n        /* \"#utility.yul\":1864:1868   */\n      dup2\n        /* \"#utility.yul\":1861:1872   */\n      gt\n        /* \"#utility.yul\":1858:1895   */\n      iszero\n      tag_58\n      jumpi\n        /* \"#utility.yul\":1875:1893   */\n      tag_59\n      tag_34\n      jump\t// in\n    tag_59:\n        /* \"#utility.yul\":1858:1895   */\n    tag_58:\n        /* \"#utility.yul\":1708:1902   */\n      swap3\n      swap2\n      pop\n      pop\n      jump\t// out\n        /* \"#utility.yul\":1908:2099   */\n    tag_26:\n        /* \"#utility.yul\":1948:1951   */\n      0x00\n        /* \"#utility.yul\":1967:1987   */\n      tag_61\n        /* \"#utility.yul\":1985:1986   */\n      dup3\n        /* \"#utility.yul\":1967:1987   */\n      tag_30\n      jump\t// in\n    tag_61:\n        /* \"#utility.yul\":1962:1987   */\n      swap2\n      pop\n        /* \"#utility.yul\":2001:2021   */\n      tag_62\n        /* \"#utility.yul\":2019:2020   */\n      dup4\n        /* \"#utility.yul\":2001:2021   */\n      tag_30\n      jump\t// in\n    tag_62:\n        /* \"#utility.yul\":1996:2021   */\n      swap3\n      pop\n        /* \"#utility.yul\":2044:2045   */\n      dup3\n        /* \"#utility.yul\":2041:2042   */\n      dup3\n        /* \"#utility.yul\":2037:2046   */\n      add\n        /* \"#utility.yul\":2030:2046   */\n      swap1\n      pop\n        /* \"#utility.yul\":2065:2068   */\n      dup1\n        /* \"#utility.yul\":2062:2063   */\n      dup3\n        /* \"#utility.yul\":2059:2069   */\n      gt\n        /* \"#utility.yul\":2056:2092   */\n      iszero\n      tag_63\n      jumpi\n        /* \"#utility.yul\":2072:2090   */\n      tag_64\n      tag_34\n      jump\t// in\n    tag_64:\n        /* \"#utility.yul\":2056:2092   */\n    tag_63:\n        /* \"#utility.yul\":1908:2099   */\n      swap3\n      swap2\n      pop\n      pop\n      jump\t// out\n\n    auxdata: 0xa264697066735822122066d22d355123f85e373725bac53065ea8ec6ed765fd7235c5dd0191a0eaa4b3864736f6c63430008160033\n}\n",
				"bytecode": {
					"linkReferences": {},
					"object": "608060405234801561000f575f80fd5b5061024e8061001d5f395ff3fe608060405234801561000f575f80fd5b5060043610610034575f3560e01c80635b644c3414610038578063ea4097bd14610068575b5f80fd5b610052600480360381019061004d919061011f565b610098565b60405161005f919061016c565b60405180910390f35b610082600480360381019061007d919061011f565b6100ab565b60405161008f919061016c565b60405180910390f35b5f6100a383836100be565b905092915050565b5f6100b683836100d3565b905092915050565b5f81836100cb91906101b2565b905092915050565b5f81836100e091906101e5565b905092915050565b5f80fd5b5f819050919050565b6100fe816100ec565b8114610108575f80fd5b50565b5f81359050610119816100f5565b92915050565b5f8060408385031215610135576101346100e8565b5b5f6101428582860161010b565b92505060206101538582860161010b565b9150509250929050565b610166816100ec565b82525050565b5f60208201905061017f5f83018461015d565b92915050565b7f4e487b71000000000000000000000000000000000000000000000000000000005f52601160045260245ffd5b5f6101bc826100ec565b91506101c7836100ec565b92508282039050818111156101df576101de610185565b5b92915050565b5f6101ef826100ec565b91506101fa836100ec565b925082820190508082111561021257610211610185565b5b9291505056fea264697066735822122066d22d355123f85e373725bac53065ea8ec6ed765fd7235c5dd0191a0eaa4b3864736f6c63430008160033",
					"opcodes": "PUSH1 0x80 PUSH1 0x40 MSTORE CALLVALUE DUP1 ISZERO PUSH2 0xF JUMPI PUSH0 DUP1 REVERT JUMPDEST POP PUSH2 0x24E DUP1 PUSH2 0x1D PUSH0 CODECOPY PUSH0 RETURN INVALID PUSH1 0x80 PUSH1 0x40 MSTORE CALLVALUE DUP1 ISZERO PUSH2 0xF JUMPI PUSH0 DUP1 REVERT JUMPDEST POP PUSH1 0x4 CALLDATASIZE LT PUSH2 0x34 JUMPI PUSH0 CALLDATALOAD PUSH1 0xE0 SHR DUP1 PUSH4 0x5B644C34 EQ PUSH2 0x38 JUMPI DUP1 PUSH4 0xEA4097BD EQ PUSH2 0x68 JUMPI JUMPDEST PUSH0 DUP1 REVERT JUMPDEST PUSH2 0x52 PUSH1 0x4 DUP1 CALLDATASIZE SUB DUP2 ADD SWAP1 PUSH2 0x4D SWAP2 SWAP1 PUSH2 0x11F JUMP JUMPDEST PUSH2 0x98 JUMP JUMPDEST PUSH1 0x40 MLOAD PUSH2 0x5F SWAP2 SWAP1 PUSH2 0x16C JUMP JUMPDEST PUSH1 0x40 MLOAD DUP1 SWAP2 SUB SWAP1 RETURN JUMPDEST PUSH2 0x82 PUSH1 0x4 DUP1 CALLDATASIZE SUB DUP2 ADD SWAP1 PUSH2 0x7D SWAP2 SWAP1 PUSH2 0x11F JUMP JUMPDEST PUSH2 0xAB JUMP JUMPDEST PUSH1 0x40 MLOAD PUSH2 0x8F SWAP2 SWAP1 PUSH2 0x16C JUMP JUMPDEST PUSH1 0x40 MLOAD DUP1 SWAP2 SUB SWAP1 RETURN JUMPDEST PUSH0 PUSH2 0xA3 DUP4 DUP4 PUSH2 0xBE JUMP JUMPDEST SWAP1 POP SWAP3 SWAP2 POP POP JUMP JUMPDEST PUSH0 PUSH2 0xB6 DUP4 DUP4 PUSH2 0xD3 JUMP JUMPDEST SWAP1 POP SWAP3 SWAP2 POP POP JUMP JUMPDEST PUSH0 DUP2 DUP4 PUSH2 0xCB SWAP2 SWAP1 PUSH2 0x1B2 JUMP JUMPDEST SWAP1 POP SWAP3 SWAP2 POP POP JUMP JUMPDEST PUSH0 DUP2 DUP4 PUSH2 0xE0 SWAP2 SWAP1 PUSH2 0x1E5 JUMP JUMPDEST SWAP1 POP SWAP3 SWAP2 POP POP JUMP JUMPDEST PUSH0 DUP1 REVERT JUMPDEST PUSH0 DUP2 SWAP1 POP SWAP2 SWAP1 POP JUMP JUMPDEST PUSH2 0xFE DUP2 PUSH2 0xEC JUMP JUMPDEST DUP2 EQ PUSH2 0x108 JUMPI PUSH0 DUP1 REVERT JUMPDEST POP JUMP JUMPDEST PUSH0 DUP2 CALLDATALOAD SWAP1 POP PUSH2 0x119 DUP2 PUSH2 0xF5 JUMP JUMPDEST SWAP3 SWAP2 POP POP JUMP JUMPDEST PUSH0 DUP1 PUSH1 0x40 DUP4 DUP6 SUB SLT ISZERO PUSH2 0x135 JUMPI PUSH2 0x134 PUSH2 0xE8 JUMP JUMPDEST JUMPDEST PUSH0 PUSH2 0x142 DUP6 DUP3 DUP7 ADD PUSH2 0x10B JUMP JUMPDEST SWAP3 POP POP PUSH1 0x20 PUSH2 0x153 DUP6 DUP3 DUP7 ADD PUSH2 0x10B JUMP JUMPDEST SWAP2 POP POP SWAP3 POP SWAP3 SWAP1 POP JUMP JUMPDEST PUSH2 0x166 DUP2 PUSH2 0xEC JUMP JUMPDEST DUP3 MSTORE POP POP JUMP JUMPDEST PUSH0 PUSH1 0x20 DUP3 ADD SWAP1 POP PUSH2 0x17F PUSH0 DUP4 ADD DUP5 PUSH2 0x15D JUMP JUMPDEST SWAP3 SWAP2 POP POP JUMP JUMPDEST PUSH32 0x4E487B7100000000000000000000000000000000000000000000000000000000 PUSH0 MSTORE PUSH1 0x11 PUSH1 0x4 MSTORE PUSH1 0x24 PUSH0 REVERT JUMPDEST PUSH0 PUSH2 0x1BC DUP3 PUSH2 0xEC JUMP JUMPDEST SWAP2 POP PUSH2 0x1C7 DUP4 PUSH2 0xEC JUMP JUMPDEST SWAP3 POP DUP3 DUP3 SUB SWAP1 POP DUP2 DUP2 GT ISZERO PUSH2 0x1DF JUMPI PUSH2 0x1DE PUSH2 0x185 JUMP JUMPDEST JUMPDEST SWAP3 SWAP2 POP POP JUMP JUMPDEST PUSH0 PUSH2 0x1EF DUP3 PUSH2 0xEC JUMP JUMPDEST SWAP2 POP PUSH2 0x1FA DUP4 PUSH2 0xEC JUMP JUMPDEST SWAP3 POP DUP3 DUP3 ADD SWAP1 POP DUP1 DUP3 GT ISZERO PUSH2 0x212 JUMPI PUSH2 0x211 PUSH2 0x185 JUMP JUMPDEST JUMPDEST SWAP3 SWAP2 POP POP JUMP INVALID LOG2 PUSH5 0x6970667358 0x22 SLT KECCAK256 PUSH7 0xD22D355123F85E CALLDATACOPY CALLDATACOPY 0x25 0xBA 0xC5 ADDRESS PUSH6 0xEA8EC6ED765F 0xD7 0x23 0x5C 0x5D 0xD0 NOT BYTE 0xE 0xAA 0x4B CODESIZE PUSH5 0x736F6C6343 STOP ADDMOD AND STOP CALLER "
				},
				"gasEstimates": {
					"creation": {
						"codeDepositCost": "118000",
						"executionCost": "163",
						"totalCost": "118163"
					},
					"external": {
						"calculateDifference(uint256,uint256)": "infinite",
						"calculateSum(uint256,uint256)": "infinite"
					}
				},
				"methodIdentifiers": {
					"calculateDifference(uint256,uint256)": "5b644c34",
					"calculateSum(uint256,uint256)": "ea4097bd"
				}
			},
			"storageLayout": {
				"storage": [],
				"types": null
			},
			"userdoc": {
				"kind": "user",
				"methods": {},
				"version": 1
			}
		}
	}
}